:020000040800F2
:1000000000040020B9010008BB010008BB01000882
:10001000BB010008BB010008BB010008BB010008D0
:10002000BB010008BB010008BB01000835D800086F
:10003000BB010008BB010008BB01000853EA00082F
:10004000BB010008BB010008BB010008BB010008A0
:10005000BB010008BB01000875360008B536000872
:10006000F5360008393700087D370008BB01000865
:10007000BB010008BB0100081DF10008BB0100081E
:10008000C1370008BB010008BB010008BB01000824
:10009000BB010008BB010008BB010008BB01000850
:1000A000BB010008BB01000809ED00081DED0008B8
:1000B000BB010008BB010008BB010008BB01000830
:1000C00071EA000861380008BB0100081539000812
:1000D000BB010008BB010008BB010008BB01000810
:1000E00072B6264880F30888254880F30988254899
:1000F00025490860022080F31488BFF36F8F0DF04C
:10010000FFF80CF0DBFE4FF0553020491B4A9142BE
:100110003CBF41F8040BFAE71D49194A91423CBF24
:1001200041F8040BFAE71B491B4A1C4B9A423EBF9D
:1001300051F8040B42F8040BF8E700201849194A5B
:1001400091423CBF41F8040BFAE70DF0DDF80DF0E9
:10015000D8F8154C154DAC4203DA54F8041B884707
:10016000F9E707F067FB124C124DAC4203DA54F882
:10017000041B8847F9E70DF0C5B800000004002013
:10018000000C00200000000808ED00E00000002046
:10019000000400200C140108000C0020881100202D
:1001A0008811002078330020E0000008E0000008FB
:1001B000E0000008E000000892E700F000F8FEE729
:1001C0002DE9F04FC1F80CD0C3689D46BDE8F08F13
:1001D000002383F311882846A04700200DF0AAFAD7
:1001E000FEE70DF0DBF900DFFEE7000053B94AB986
:1001F000002908BF00281CBF4FF0FF314FF0FF302F
:1002000000F076B9ADF1080C6DE904CE00F006F807
:10021000DDF804E0DDE9022304B070472DE9F04782
:10022000089E0D4604468846002B4DD18A429446CE
:1002300068D9B2FA82F252B101FA02F3C2F1200196
:1002400020FA01F10CFA02FC41EA030894404FEA5B
:100250001C41B8FBF1F71FFA8CFE01FB178807FB66
:100260000EF0230C43EA084398420AD91CEB03031F
:1002700007F1FF3580F01E81984240F21B81023F5A
:1002800063441B1AB3FBF1F001FB103300FB0EFEBD
:10029000A4B244EA0344A6450AD91CEB040400F1C5
:1002A000FF3380F00981A64540F20681644402389C
:1002B0000021A4EB0E0440EA07401EB10023D44005
:1002C000C6E90043BDE8F0878B4208D9002E00F054
:1002D000EE800021C6E900050846BDE8F087B3FAC4
:1002E00083F100294AD1AB4202D3824200F2FC8062
:1002F000841A65EB030301209846002EE2D0C6E97C
:100300000048DFE702B9FFDEB2FA82F2002A40F0CD
:100310009180A1EB0C0001214FEA1C471FFA8CFED3
:10032000B0FBF7F307FB1300250C45EA00450EFB75
:1003300003F0A84208D91CEB050503F1FF3802D2EF
:10034000A84200F2CE8043462D1AB5FBF7F007FB1A
:1003500010550EFB00FEA4B244EA0544A64508D998
:100360001CEB040400F1FF3502D2A64500F2B68072
:100370002846A4EB0E0440EA03409EE7C1F12007A3
:100380008B4022FA07FC4CEA030C25FA07FA4FEAE5
:100390001C49BAFBF9F820FA07F309FB18AA8D40AB
:1003A0001FFA8CFE1D4300FA01F308FB0EF02C0C23
:1003B00044EA0A44A04202FA01F20BD91CEB0404FD
:1003C00008F1FF3A80F08880A04240F28580A8F1D1
:1003D00002086444241AB4FBF9F009FB104400FB42
:1003E0000EFEADB245EA0444A64508D91CEB040450
:1003F00000F1FF356CD2A6456AD90238644440EA60
:100400000840A0FB0295A4EB0E04AC42C846AE46E1
:1004100056D353D0002E69D0B3EB080264EB0E0420
:1004200022FA01F304FA07F71F43CC40C6E900742F
:10043000002147E70CFA02FCC2F1200125FA01F382
:100440004FEA1C4720FA01F195400D43B3FBF7F149
:1004500007FB11331FFA8CFE280C40EA034001FB16
:100460000EF3834204FA02F408D91CEB000001F1F8
:10047000FF382FD283422DD902396044C01AB0FB15
:10048000F7F307FB1300ADB245EA004503FB0EF09E
:10049000A84208D91CEB050503F1FF3816D2A84283
:1004A00014D9023B6544281A43EA014138E7314632
:1004B000304607E72F46E4E61846F9E64B45A9D251
:1004C000B9EB020865EB0C0E0138A3E74346EAE7F7
:1004D000284694E74146D1E7D0467BE7644402389A
:1004E00047E7023B65442FE7084606E73146E9E661
:1004F000704700BF062008B500F0E0FA01200EF0BA
:10050000F1F800BF024B0146186800F06DB900BF5A
:10051000000C0020024B0146186800F0FFB800BF35
:10052000000C0020032A10B516D940EA010C1CF07B
:10053000030F04460B4622D119462046D1F800E0AD
:10054000D0F800C00433F44504F1040417D1043A90
:10055000032A20461946EFD8541EA2B100F1FF3CF1
:10056000013901E0C3180CD01CF801EF11F8012F7C
:10057000A4EB0C039645F5D0AEEB020010BD541E63
:10058000ECE7184610BD104610BD00BF844641EA96
:10059000000313F0030349D1403A23D30B680360EF
:1005A0004B6843608B688360CB68C3600B690361F1
:1005B0004B6943618B698361CB69C3610B6A0362D9
:1005C0004B6A43628B6A8362CB6AC3620B6B0363C1
:1005D0004B6B43638B6B8363CB6BC36340304031A6
:1005E000403ADBD230320BD30B6803604B68436078
:1005F0008B688360CB68C36010301031103AF3D23F
:100600000C3205D351F8043B40F8043B043AF9D2CC
:10061000043208D0D2071CBF11F8013B00F8013B9F
:1006200001D30B8803806046704700BF082A13D3AC
:100630008B07B1D010F00303AED0C3F10403D21A7C
:10064000DB071CBF11F8013B00F8013BA4D331F8D4
:10065000023B20F8023B9FE7043AD9D3013A11F854
:10066000013B00F8013BF9D20B7803704B784370E3
:100670008B78837060467047830730B548D0541E2E
:10068000002A3FD00346CAB201E0013C3AD303F846
:10069000012B9D07F9D1032C2DD9CDB245EA0525B3
:1006A0000F2C45EA054536D9A4F1100222F00F0CB3
:1006B00003F1200EE6444FEA121C03F1100242E956
:1006C000045542E9025510327245F8D10CF101028D
:1006D00014F00C0F03EB021204F00F0C13D0ACF16A
:1006E000040323F003030433134442F8045B9342EE
:1006F000FBD10CF003042CB1CAB21C4403F8012B4B
:100700009C42FBD130BD64461346002CF4D1F9E77E
:1007100003461446BFE71A46A446E0E7002952D034
:1007200038B551F8043C0C1F002BB8BFE41805463F
:1007300000F0F0FA2B4A1368002B45D0A3420CD9E5
:1007400021686018834228D0636028461460BDE8A1
:10075000384000F0E1BAA3420FD81A465B68002B7C
:10076000F9D11168501884421DD034D363605460AD
:100770002846BDE8384000F0CFBA11685018A042B2
:1007800015D028D8216860188342EFD118685B68BB
:100790000144C4E900135460EAE718685B68014447
:1007A000C4E90013D1E7236819441160E0E7206829
:1007B0000144501883421160DAD1D3E900030144A7
:1007C000C2E90013D4E77047284663601460BDE8AF
:1007D000384000F0A1BA0C2328462B60BDE8384011
:1007E00000F09ABA88110020F8B5CD1C25F0030559
:1007F00008350C2D38BF0C25002D064623DBA942F9
:1008000021D8264F00F086FA3A6822B3144603E056
:1008100063682246FBB11C4623685B1BF8D40B2B94
:1008200015D8636894420CBF3B605360304600F0BB
:1008300073FA04F10B00231D20F00700C21A01D047
:100840001B1AA350F8BD0C2300203360F8BD2360B1
:100850001C442560EAE77968D1B1294630460DF09D
:1008600025FF431C01460CD0C41C24F00304A04205
:1008700005D03046611A0DF019FF013001D0256016
:10088000D4E70C233046336000F046FA0020F8BD70
:1008900030460DF00BFF7860DFE700BF88110020C5
:1008A00038B5124B04461D68AA6B1AB10023C2E981
:1008B000044338BD1820FFF725FE0246A86378B12F
:1008C00000210B2301209381C2E90401084B09494F
:1008D000094DC2E9011300231560C2E9044338BD84
:1008E0004221064B064800F0CDF900BF000C002065
:1008F000ECDE050034126DE60E33CDAB3C1301087F
:100900005413010838B5194B1C68A26B8AB11369DE
:100910001749546903FB01F1164800FB0411A3FBBE
:100920000030013341EB0001C2E9043121F0004005
:1009300038BD1820FFF7E6FD0246A06388B1012408
:1009400000250B230A480C49C2E904451160014601
:100950000A4D0B4C93810B4BC2E90154C2E904319F
:1009600038BD4E21084B094800F08CF9000C0020DE
:100970002DF451582D7F954C0E33CDAB34126DE6CE
:10098000ECDE05002E7F954C3C1301085413010842
:1009900038B5446C0CB1002038BD80210546FFF706
:1009A00023FF0246686430B1031F7C3243F8044FD2
:1009B0009342FBD1EFE74FF0FF3038BD1F29F8B568
:1009C000054608D8466C0C4617464EB156F824002A
:1009D00046F82470F8BD16234FF0FF302B60F8BDA9
:1009E0008021FFF701FF0646686440B10021031F24
:1009F00000F17C0543F8041F9D42FBD1E6E74FF070
:100A0000FF30F8BD1F2938B5054620D8426C0C468A
:100A10006AB152F8213053B1012B16D0591C10D0B5
:100A20000025204642F824509847284638BD2846DD
:100A300000F0F8F8224601462846BDE8384000F0AC
:100A4000DDB8162301202B6038BD002038BD1623E9
:100A50004FF0FF302B6038BD1F292BD8426C38B5C2
:100A60000C46054682B152F8243002EB84024BB1A9
:100A7000591C1AD0012B16D0002520461560984726
:100A8000284638BD012038BD8021FFF7ADFE024663
:100A9000686460B10020131F02F17C0143F8040F69
:100AA0009942FBD1DFE7032038BD022038BD4FF06B
:100AB000FF3038BD4FF0FF30704700BF38B5144BE2
:100AC0001F281D681FD86A6C044662B152F8203096
:100AD0004BB1012B15D0591C0FD0002542F82050E6
:100AE0009847284638BD284600F09CF82246014623
:100AF0002846BDE8384000F081B8162301202B605D
:100B000038BD002038BD16234FF0FF302B6038BDB4
:100B1000000C0020124B1F2870B51E6808D80D4627
:100B2000716C044649B151F8240041F8245070BD5D
:100B300016234FF0FF30336070BD80213046FFF741
:100B400053FE0146706440B10022031F00F17C0C8B
:100B500043F8042F6345FBD1E5E74FF0FF3070BD4C
:100B6000000C002038B50B4B1D686C6C0CB10020DC
:100B700038BD80212846FFF737FE686438B1031F6F
:100B800000F17C0243F8044F9342FBD1EFE74FF0B2
:100B9000FF3038BD000C002038B5174B1F281D68EA
:100BA00027D86A6C044682B152F8243002EB8402E2
:100BB0004BB1591C1BD0012B17D0002520461560C6
:100BC0009847284638BD012038BD80212846FFF7C8
:100BD0000BFE0246686460B10020131F02F17C0125
:100BE00043F8040F8B42FBD1DEE7032038BD02201F
:100BF00038BD4FF0FF3038BD000C002070B5002626
:100C0000074D0446084611462E600DF073FD431C47
:100C100000D070BD2B68002BFBD0236070BD00BFDF
:100C2000901100200DF06EBD20F0030110F00300C4
:100C3000C0F1000051F8043B00F1040C4FEACC0C69
:100C40006FF000021CBF22FA0CF213434FF0010CAC
:100C50004CEA0C2C4CEA0C4CA3EB0C0222EA0302EB
:100C600012EACC1204BF51F8043B0430F4D0C2F1B4
:100C7000000102EA0102B2FA82F2C2F11F0200EBA5
:100C8000D2007047144600B51A460A4B0D461B6841
:100C900085B0DE6803464CB10749019130460749EB
:100CA0000294009500F022F8FFF724FC04490C465A
:100CB000F3E700BF000C0020881301089813010817
:100CC0009413010808B513460022FFF7DBFF00BFAD
:100CD0000CB400B583B004AB53F8042B019300F0BF
:100CE00057F803B05DF804EB02B070470EB400B5DE
:100CF000074A82B003AB0146106853F8042B0193F6
:100D000000F046F802B05DF804EB03B0704700BF96
:100D1000000C0020704700BF704700BF9368013B84
:100D2000002B936005DAD2F818C0634507DB0A2967
:100D300005D01368581C106008461970704700F001
:100D400069BB00BF9BB1F8B5134406460F46541E5D
:100D50005D1E01E0AC4208D03A46304614F8011F4F
:100D6000FFF7DCFF431CF5D1F8BD0020F8BD0020E3
:100D7000704700BF936810B5144613B91846536006
:100D800010BD00F031FE0023C4E9013310BD00BFE7
:100D90002DE9F04F0E4692461C4607469FB018B10B
:100DA0008369002B00F0A880954B9E4200F0AA803A
:100DB000944B9E4200F0B580934B9E4208BFFE6864
:100DC000B389180740F1A3803369002B00F09F809E
:100DD000002320220B9330239AF80010059401255C
:100DE0008A4C8DF831208DF8323000297DD0D146E3
:100DF0000B4604E019F8013F002B00F09480252BEE
:100E0000F8D1B9EB0A0B40F0918099F80030002B33
:100E10006BD000234FF0FF3209F10109CDE9072320
:100E2000069309938DF85B301C9304E0001B05FAD0
:100E300000F018430690CA460522204619F8011B07
:100E400001F01CF8069B0028F0D1D90644BF2022EF
:100E50008DF85B201A0748BF2B229AF8001048BF74
:100E60008DF85B202A2972D1059A11680432002975
:100E70000592C0F2A08009919AF801100AF1010AC6
:100E80002E2976D0DFF888910322484600F0F6FF3D
:100E900048B14022069BA0EB090002FA00F0034390
:100EA0000AF1010A06931AF8011B062259488DF827
:100EB000301000F0E3FF002800F08380564B002B39
:100EC0006CD005A9009132463846544B06A9AFF3C1
:100ED00000800390039B013307D00B9B039A9AF881
:100EE000001013440B93002981D1B3895B0615D4FC
:100EF0000B981FB0BDE8F08F00F056FD404B9E42AE
:100F00007FF456AF7E68B38918073FF55DAF314671
:100F1000384600F0E1FA00283FF45AAF4FF0FF30B6
:100F2000E7E7BE684CE7B9EB0A0BDED0D046CAF162
:100F3000010A03E0934538D918F8011F32463846B4
:100F4000FFF7ECFE01300AEB0802F3D1CDE7A1F187
:100F50003002092A94D8099B1AF8011F03EB830376
:100F600002EB4303A1F13002092AF5D92E29099396
:100F700088D19AF801102A292DD1059B0AF1020087
:100F80001A680433002A0593B8BF4FF0FF339AF86C
:100F9000021007928246B8BF079373E7059B073399
:100FA00023F007030833059397E70B9A99F800306D
:100FB0005A440B922BE7494243F0020309910693EE
:100FC0005AE705A9009132463846144B06A900F0AD
:100FD000CBF803907EE70023A1F13002092A0AF141
:100FE000010A07933FF64EAF1AF8011F03EB830384
:100FF00002EB4303A1F13002092AF5D9079341E737
:1010000018060108F8050108D8050108C8130108E9
:10101000D0130108D413010800000000450D00089A
:101020008C4600B586461346034A714610685DF843
:1010300004EB6246FFF7ACBE000C00202DE9F04740
:1010400091461E460A698B680C469A42B8BF1A46FA
:10105000C9F8002091F843300546DDF8208013B12F
:101060000132C9F80020226891065DD5D9F8003018
:101070000233C9F80030226812F0060F11461ED163
:10108000E168CB1A002BD8BF114618DD002704F108
:10109000190A06E0D9F80030E268A2EB030CBC455F
:1010A0000CDD0123524631462846C047013007F186
:1010B0000107EFD14FF0FF30BDE8F087216894F8C9
:1010C0004330003B18BF01238A060AD53021E218BD
:1010D00082F8431094F845105A1C2244023382F8D7
:1010E00043103146284604F14302C0470130E1D0A5
:1010F000236803F00603042B1DD0A36822699342E2
:1011000025DD00279B1A1F4404F11A09002401E081
:10111000BC421CDA01234A4631462846C04701300A
:1011200004F10104F4D1C5E712F0060F12D0003B20
:1011300018BF0123D5E7D9F80030E1682269C91A40
:10114000A36821EAE1779342DCDC0029DCDC0020A3
:10115000BDE8F087E168D9F80030CB1A002BD8BF82
:10116000114693DCABE700BF2DE9F04317460A7E3A
:1011700085B00C46064698460C9D01F1430C002AAA
:1011800033D0A2F15803D9B2202967D8202B65D8D3
:10119000DFE813F0DD0064006400640064006400B4
:1011A00064006400640064006400A3006E006400D6
:1011B0006400640064006E00640064006400640005
:1011C00021007F00BF0064006400AE0064007F0067
:1011D00064006400E40023681A0640F102812B6871
:1011E0006269191D29601B681A600023E1462361AA
:1011F0003B4621463046CDF8008003AAFFF71EFF8C
:10120000013020D04A46394630462369C047013074
:1012100019D02368E0689B07039919D5431A002B5E
:1012200016DD002504F1190904E0E0680399431A6A
:10123000AB420DDD01234A4639463046C0470130F6
:1012400005F10105F1D14FF0FF3005B0BDE8F083A5
:101250008842B8BF084605B0BDE8F083012384F892
:10126000422004F142092361002384F84330BFE7A0
:101270002368190602D45A0600F1BF8029680A685B
:10128000043129601146002A6ADB0A25DFF87CE177
:1012900010E02368180640F19A802B68191D296018
:1012A00019686F2A0CBF08250A25DFF860E10023C2
:1012B00084F843306268002AA2607DDB236823F053
:1012C00004032360002959D1002A77D1E146082D73
:1012D00063D0ACEB090323618AE701222B6804F198
:1012E0004209196804332B6084F842102261BBE77D
:1012F0002B6800211A1D2A60D3F8009062684846C6
:1013000000F0BCFD00287FD0A0EB090060602061E8
:10131000AAE7236843F0200323607822DFF8F0E097
:1013200084F845202A68111D2960190642D45D06FB
:1013300040D51188D80744BF43F02003236000291B
:1013400043D12368102523F020032360AFE75823FF
:10135000DFF8B8E084F845302368E3E72368DCE78A
:101360002D2284F8432062684942002AA26002DBF1
:1013700023F0040323600A25DFF890E0E146B1FB87
:10138000F5F30A4605FB131019461EF80030AA4271
:1013900009F8013DF3D2082D9BD12368D90798D5D0
:1013A000626823699A4294DC302309F1FF3989F895
:1013B00000308EE71168BDE70029DFD19EF80030CC
:1013C00004F1420984F8423081E710256FE713F0F9
:1013D000400F2B6803F1040129600CBF19681988BC
:1013E0005FE713F0400F2B68626903F10401296085
:1013F0001B6814BF1A801A60F7E62A68B2F9001059
:1014000004322A600A463EE7606880E7DC13010880
:10141000F0130108F8B506460D46144608B1836975
:1014200043B3254B9C422AD0244B9C4229D0244BC9
:101430009C4208BFF468A269A389A2601A0722D55A
:10144000236903B322686169D31AEDB299422F462A
:1014500029DD0133A1680139A160511C216015709B
:1014600062699A4216D0A389DB0701D50A2D11D0F3
:101470003846F8BD00F098FA0F4B9C42D4D17468FE
:10148000D9E7B468D7E72146304600F025F838B9E7
:101490002369D7E72146304600F024F90028E7D039
:1014A0004FF0FF37E4E72146304600F01BF90028F3
:1014B000F6D101232268CDE718060108F8050108D6
:1014C000D805010803460A46024908681946FFF78D
:1014D000A1BF00BF000C00203C4B70B51D68064644
:1014E0000C460DB1AB69E3B1394B9C421FD0394B6F
:1014F0009C424DD0384B9C4208BFEC68B4F90C308C
:1015000018079AB219D5216911B312F001002FD032
:1015100000256069A5604042A06100292ED000200E
:1015200070BD284600F040FA294B9C42DFD16C6820
:10153000B4F90C3018079AB2E5D4D1063ED552075B
:1015400028D4216943F00803A3819AB20029DCD191
:1015500002F42070B0F5007FD7D02146304600F06D
:10156000FFFBB4F90C3021699AB212F00100CFD11F
:10157000950758BF6069A0600029D0D1120658BFF6
:101580000846CDD543F040034FF0FF30A38170BD36
:10159000AC68B3E7616B51B104F14402914204D0ED
:1015A0003046FFF7BBF8B4F90C300022626300222A
:1015B000216923F02403C4E90012C3E7092243F0A0
:1015C000400332604FF0FF30A38170BD000C00205B
:1015D00018060108F8050108D8050108F8B58B8937
:1015E0000C46190707463BD46268002A55DDE66AB7
:1015F000002E50D000223D683A6013F4805250D142
:1016000001233846216AB047421C5CD0A389E66AB0
:101610005B0705D56368C01A636B0BB1236CC01AF6
:101620000246216A00233846B047411C3BD13B6843
:10163000002B38D01D2B01D0162B4BD10023226953
:10164000C4E90023616B3D6029B304F1440399426E
:1016500002D03846FFF762F8002318466363F8BDEE
:101660002669C6B19A0718BF0023256808BF6369B9
:101670002660AD1BA3600CE02B463246D4F828C090
:101680003846216AE047B0F1000CA5EB0C05664432
:1016900012DD002DF0DC0020F8BD226C002AA6DC53
:1016A000F9E7606DB4E70022236962602360A389D3
:1016B000DB04C7D56065C5E7A3894FF0FF3043F071
:1016C0004003A381F8BD3B68002B9FD01D2B06D0A3
:1016D000162B04D0A38943F04003A381F8BD00205A
:1016E0003D60F8BD38B50B69BBB10C46054608B185
:1016F0008369B3B10D4B9C4211D00D4B9C4213D06A
:101700000C4B9C4208BFEC68B4F90C302BB121465D
:101710002846BDE83840FFF761BF002038BD6C683F
:10172000F2E700F041F9E5E7AC68EDE718060108DB
:10173000F8050108D805010838B540B30369044627
:10174000E3B1174B1D680DB1AB69CBB1154B9C4292
:101750000FD0154B9C4221D0144B9C4208BFEC6823
:10176000B4F90C3053B121462846BDE83840FFF7A4
:1017700035BF6C68B4F90C30002BF4D1002038BDB3
:10178000284600F011F9074B9C42E2D1F1E7084BE3
:1017900008491868BDE8384000F0BEBAAC68DFE719
:1017A000000C002018060108F8050108D8050108FA
:1017B000D4050108E516000800207047014900F033
:1017C000ABBA00BFE516000800207047682270B56C
:1017D0004D1E02FB05F50E4605F17401FFF704F8F6
:1017E000044640B100210C30C4E9016005F16802F3
:1017F0002160FEF741FF204670BD00BF274B2DE959
:10180000F0411E680746B36953B34FF004084836E9
:10181000D6E90134013B04D51EE05A1C04F16804EA
:101820001AD0B4F90C50013B002DF6D11C4B082204
:101830002946C4E90055C4E90253C4E90455656664
:10184000A56104F15C00FEF717FFC4E90D55C4E97A
:1018500012552046BDE8F08135682DB12E46D7E7F8
:10186000304600F01FF8D0E74FF4D6713846FEF747
:10187000BBFF044668B1056029460546C0F80480F0
:101880000C304FF4D072A060FEF7F6FE34602E46A6
:10189000BEE70C2330603B60DBE700BFD4050108E6
:1018A0000100FFFF0023334A2DE9F0471268C0E929
:1018B00012339042036508BF01232F4908BF83619B
:1018C00081620546FFF79AFF034628466B60FFF7E3
:1018D00095FFA86028460024FFF790FF04236E6858
:1018E000DFF898A0DFF89890DFF89880264FE8603E
:1018F0000822F3602146C6E90044C6E90444746640
:10190000B460B46106F15C00FEF7B6FE1F4BC6E999
:10191000086AC6E90A983763AE680822F360214670
:10192000C6E90044C6E904447466B460B46106F1D3
:101930005C00FEF7A1FE164BC6E9086AC6E90A98E4
:101940003763EE682146F3600822C6E90044C6E921
:1019500004447466B460B46106F15C00FEF78CFE6A
:101960000123C6E9086AC6E90B87C6F82890AB616F
:10197000BDE8F087D4050108BD1700085520000810
:101980007D200008BD200008DD20000809000100BE
:1019900012000200024B0349186800F0BDB900BFF5
:1019A000D4050108E5160008836903B97AE7704792
:1019B000704700BF704700BF704700BF704700BF4F
:1019C000024B0349186800F087B900BF000C0020E3
:1019D000B9170008024B0349186800F07DB900BF31
:1019E000000C0020C91700089368002B00F0B78096
:1019F0002DE9F04FB1F90C300C4619078046174617
:101A000083B098B225D523691BB310F002033D685B
:101A10002DD04FF0000B5E46DFF8B8A2002E00F08C
:101A20008B80564533465A4628BF53464046216A66
:101A3000D4F828C0E047002840F38780BB6883447F
:101A40001B1A361ABB60002BE8D1002003B0BDE89A
:101A5000F08F21464046FFF73FFD002840F03681D9
:101A6000B4F90C303D6898B210F00203D1D110F0F7
:101A7000010976D14E46002E5AD08205D4F808B01E
:101A800040F1B580B3455A4600F2CD8010F4906F16
:101A900000F0CB8023682169A3EB010B636903EBA2
:101AA000430A0AEBDA7A0BF101034FEA6A0A33447C
:101AB0005345524684BF9A465246430540F1EA8058
:101AC00011464046FEF790FE002800F0F9805A4685
:101AD00021690190FEF75AFDA289019B22F49062D0
:101AE00042F08002A28103EB0B0023613246AAEB95
:101AF0000B03B346C4F814A0A3602060B2460026CE
:101B00004946019200F002FAA3682168019AA3EB0A
:101B10000B030A44A3602260B868D144A0EB0A001A
:101B2000B860002891D0B4F90C0080B2002EA4D186
:101B3000D5E9009608359EE7D5E900B608356DE78A
:101B400021464046FFF7CEFD80B3B4F90C304FF08C
:101B5000FF3043F04003A38103B0BDE8F08F0020C5
:101B600070471E46AA46994618461D4656B3002899
:101B700032D04A4620682169B24228BF32468842A4
:101B8000636904D9A16803EB010B5A4574DC9342E5
:101B900065DC2A464046216AD4F828C0E047B0F107
:101BA000000BD2DDB9EB0B09CAD00120BB685D4444
:101BB000A3EB0B03A6EB0B06BB60002B3FF445AF7A
:101BC000002ED4D10AF1080353F8046C9A4653F856
:101BD000085C0833002EF7D032460A21284600F070
:101BE0004DF9002869D00130A0EB0509C1E7206854
:101BF000236998421BD86369B34218D86FF0004C30
:101C0000B44528BFB4469CFBF3FC4A4603FB0CF3E7
:101C10004046216AD4F828C0E047B0F1000A94DDBC
:101C2000A6EB0A0678E7B3463246206866E7B34576
:101C3000DA4628BFB2464946524600F067F9A36823
:101C40002268A3EB0A035244A3602260002BE7D171
:101C500021464046FFF746FD0028E1D075E72946BA
:101C60009346019200F052F9A368019A9B1AA3606F
:101C700023681A44226095E729465A4600F046F93F
:101C8000236821465B4440462360FFF72BFD002874
:101C900088D05AE7404600F0B5F9034600287FF4A3
:101CA00022AF40462169FEF739FD0C22B4F90C3011
:101CB000C8F8002023F0800349E7721C914659E7D9
:101CC0000C22B4F90C30C8F8002040E74FF0FF3088
:101CD000BCE600BF00FCFF7F2DE9F04100268846EE
:101CE00000F14807D7E90154013D0ED4A389013D15
:101CF000012B06D9B4F90E30013302D02046C0477B
:101D000006436B1C04F16804F0D13F68002FE9D151
:101D10003046BDE8F08100BF2DE9F8434FF00009DF
:101D20000746884600F14806D6E90154013D10D423
:101D3000A389013D012B08D9B4F90E30013304D039
:101D400021463846C04749EA00096B1C04F1680483
:101D5000EED13668002EE7D14846BDE8F88300BFD3
:101D6000F0B58B890C46990797B007D5012204F18D
:101D70004703C4E90432236017B0F0BDB4F90E1074
:101D8000054600292DDB6A460CF09DFC002827DB68
:101D9000019E4FF4806706F47046A6F50056B6FA29
:101DA00086F6394628467609FEF71EFD30B3A3892C
:101DB0001A4A43F08003AA62C4E90407A3812060A1
:101DC000002ED9D02846B4F90E100CF088FC00285B
:101DD000D2D0A38923F0030343F00103A381CBE70F
:101DE000A38913F0800F14BF40274FF48067284663
:101DF00039460026FEF7F8FC0028D8D1B4F90C309B
:101E00009A05B9D4012123F0030304F1470243F0FA
:101E10000203C4E90421A3812260ADE7BD170008D5
:101E200070B50C46B1F90E10164600291D4696B045
:101E300013DB6A460CF047FC00280EDB01994FF4D7
:101E4000806301F47041A1F50051B1FA81F10020E5
:101E500049092960336016B070BD0022B4F90C3016
:101E60002A601B0604D540230020336016B070BDE5
:101E70004FF480630020336016B070BD5FFA81FCC0
:101E8000810710D00346511E2AB90AE09A07184666
:101E90000AD0013905D3184613F8012B6245F5D154
:101EA000704700207047114603290CD80029F8D04C
:101EB0000346014401E08B42F3D0184613F8012B8E
:101EC0006245F8D1ECE7024610B54CEA0C2444EA2E
:101ED00004441046036804326340A3F1013E2EEA35
:101EE000030313F0803F04D1043903291046F0D8CE
:101EF00051B10346014401E08B4205D0184613F866
:101F0000012B6245F8D110BD002010BD88420DD9CB
:101F10008B1883420AD900EB020CBAB1624613F85F
:101F200001CD994202F801CDF9D170470F2A0ED8A0
:101F3000034602F1FF3C4AB10CF1010C013B8C4419
:101F400011F8012B614503F8012FF9D1704740EAE0
:101F500001039B074FD1A2F1100370B501F1200CD2
:101F600023F00F0501F1100E00F11004AC441B0921
:101F70005EF8105C0EF1100E44F8105C5EF81C5C0C
:101F8000103444F81C5C5EF8185C44F8185C5EF889
:101F9000145CE64544F8145CEAD1013312F00C0FEE
:101FA00001EB031102F00F0400EB031327D08E4660
:101FB000043C24F003064FEA940C1E441C1F5EF8F8
:101FC000045B44F8045FB442F9D10CF1010402F05F
:101FD000030203EB840301EB840102F1FF3C4AB1ED
:101FE0000CF1010C013B8C4411F8012B614503F805
:101FF000012FF9D170BD034602F1FF3C9CE7224658
:10200000EBE700BFF8B51446F9B1CAB106460D4674
:1020100000F068F8A04202D32F463846F8BD2146AA
:102020003046FEF7E1FB07460028F6D02246294657
:10203000FEF7ACFA30462946FEF770FB3846F8BD8D
:102040002746FEF76BFB3846F8BD1146BDE8F84061
:10205000FEF7CABB10B50C46B1F90E100CF01BFB15
:10206000002803DB636D0344636510BDA38923F47B
:102070008053A38110BD00BF002070472DE9F041BF
:102080000C46B1F90C101F46CB05054616460BD47D
:1020900021F48051A1813B4632462846B4F90E1006
:1020A000BDE8F0410CF0FEBAB4F90E100223002294
:1020B0000CF0F6FAB4F90C10EAE700BF10B50C46C4
:1020C000B1F90E100CF0ECFAA389421C0EBF23F4F8
:1020D000805343F480536065A38110BDB1F90E10A5
:1020E0000CF0E2BA51F8040C0028A0F10400BCBFC7
:1020F0000B58C018704700BF0F4A0023114610B597
:10210000147C844211D11C225343CA18906858B1E0
:10211000CB58FF281FBF58434000013050604FF09C
:10212000010004BF0133536010BD01330D2B02F1D8
:102130001C02E5D10020F7E75C0E0020F0B50A4E46
:1021400000253446377C874207D11C2000FB054020
:102150004176027683760120F0BD01350D2D06F122
:102160001C06EFD10020F7E75C0E0020094A30B5CD
:1021700000231446157C854205D11C22012002FB58
:102180000343996030BD01330D2B02F11C02F1D1E4
:102190000020F7E75C0E0020094A30B50023144602
:1021A000157C854205D11C22012002FB03435960A6
:1021B00030BD01330D2B02F11C02F1D10020F7E7F5
:1021C0005C0E002070B50B4C00232546267C864211
:1021D00009D11C204343E818E95000238260C36002
:1021E0004374012070BD01330D2B04F11C04EDD1AB
:1021F0000020F7E75C0E002070B500252E462B4C22
:102200006368002B4FD0E06808BB637CB3FA83F3AC
:102210005B0963740AF002FBD4E900239342E06097
:102220002BD266606674E66063690BB1207C9847C8
:10223000207CFF2824D100221146104608F0E4F942
:1022400007355B2D04F11C04DAD1012070BD0AF0C2
:1022500029FB23689842D8D26368002BE4D020463B
:1022600002F070FC0028EBD0637C207CB3B1FF2827
:102270000CD1A27E217E607EE0E79B1A6360EBE7D3
:102280004028DDD800231A46194604E04028D7D854
:10229000A37E227E617E07F021FBD1E7FF28CAD012
:1022A0004028CDD8EFE76374E360C9E75C0E0020F7
:1022B00007B543788DF8003083788DF80130C37806
:1022C0008DF8023043798DF80330037968468DF834
:1022D00004300DF0F1FF03B05DF804FB08B5074BC7
:1022E0005A78032A07D858680AF0DCFAC72894BF3E
:1022F0000020012008BD0020FCE700BFA40C002046
:102300007047000010B5144C202220464FF4804145
:102310000CF069FB204620224FF400410CF063FBD7
:10232000002280214FF080400CF05DFBFFF7E8FFBA
:1023300000BF00BF00BF00BF00BF00BF00BF00BFA5
:1023400000BF00BF00BF00BF00BF00BF00BF00BF95
:1023500000BF00BF10BD00BF0008004008B501F07D
:1023600049FB08BD08B5054C20780DF09DFA207892
:10237000FFF7F4FF05200BF0E2F9F5E7982F0020B6
:1023800010B5084C236803F07142074B13432360D8
:102390000AF044FA054B18602068BDE8104004F0CC
:1023A000ACBD00BF982F00200001010E9811002045
:1023B00010B5064C0122204602210CF014FB02232A
:1023C000A361BDE8104001F0FFBB00BF0004004066
:1023D00001207047144B10B51C78BCB9134B1B7807
:1023E000042B13D104F076FC04F08AFC04F03CFCCE
:1023F00004F0B6FC05F08EFE05F0A8FE20460AF0BB
:10240000A3F82046BDE810400AF0BAB80DF058FF16
:1024100048B10DF03FFA0028FBD1BDE8104044F66A
:1024200020600BF08CB910BD982F002024330020C1
:10243000002370B50D460446284E0B70002838D096
:102440000AF0ECF9264B30601A69560402D51A6975
:10245000110435D41A69520402D41B691E0431D404
:102460001F4A1169C1F38033490405D5136913F478
:10247000004F14BF002302231A4A1278511E042968
:1024800022D9062A22D0002A0CBF03200020164A97
:1024900014B91178994202D11C1A18BF0124022BD9
:1024A000137015D0032B15D0012B15D102232B70DF
:1024B00004E030680AF0F6F93228C1D8204670BD31
:1024C0000323D9E70123D7E70120E0E70220DEE775
:1024D0000323ECE70123EAE70023E8E7A811002043
:1024E00000080040982F00209E110020084B9A7889
:1024F000012A07D0022A09D0064B1868B0FA80F0EA
:102500004009704758780128F6D170470120FCE750
:10251000A40C00201413002008B5054B9B78013B48
:10252000012B02D9FFF7E2FF08BD0120FCE700BF45
:10253000A40C002008B50AF071F9014B986008BDA1
:10254000A40C002010B5094C2378207063700AF0A9
:1025500065F96060FFF7EEFF00F054FEBDE8104043
:102560000022034B53201A700DF026BEA40C00204D
:10257000A4110020F8B50C461546074660B30029A3
:102580003FD0884201D0FFF725FF584E3378013BFA
:10259000012B04D80320FFF7D5FF0023B370544E5E
:1025A0003378A34200D11DB10022524B9A619A8325
:1025B000347024B1631E042B747098BFB4703068FB
:1025C00004F09BFC3378062B00F28980DFE803F0EF
:1025D000852A46505A646E000029D6D00222464B06
:1025E000464E9A613378012BCDD030460CF0DAF9A3
:1025F00030460BF0A4FD4248424B836009F070FF67
:10260000C1E74FF400323C4B3C489A610378042BFD
:10261000B9D03D4B3A4E19703C4BB3600AF0A8FB61
:102620003046EBE7312075B10DF0C6FD52200DF0BC
:10263000C3FD01200DF0CCFD4EF2704143F22D4060
:102640000DF01CFE51200DF0B7FDFFF773FF2A4679
:102650002146384601F09AFF0120F8BD3220002DB6
:10266000F1D00DF0A9FD52200DF0A6FD0220E1E70A
:102670003320002DE7D00DF09FFD52200DF09CFD82
:102680000320D7E73420002DDDD00DF095FD52203A
:102690000DF092FD0420CDE73520002DD3D00DF0B4
:1026A0008BFD52200DF088FD0520C3E73020002D62
:1026B000C9D00DF081FD142115480DF0AFFD222188
:1026C00014480DF0C3FD4EF2704143F22D400DF061
:1026D000D5FD52200DF070FDB4E71120B3E71120B5
:1026E0000DF06AFDFFF74CFEAFE700BFA40C002021
:1026F000982F0020640C00200004004024330020A8
:1027000068110020B1220008E01F002035CE00082B
:10271000380601084C060108002313B50DF1070126
:102720008DF80730FFF784FE044690B19DF807301E
:10273000013B032B0DD8DFE803F002060F12002245
:102740001146094B02E00022074B99781878FFF7F1
:1027500011FF204602B010BD00220621F1E7024B16
:1027600000225978F2E700BF982F002013B5144CCF
:102770004CF250300AF0E3FF20460DF01DF8012323
:10278000A37704F0B7FB0F4C206008B9FFF7F8FD02
:10279000E37843F00103E3700AF040F80A4BFF22AC
:1027A000186000234FF4A87100930848084B0AF002
:1027B00093FFFFF7A7FD0120FFF7AEFF02B010BDAA
:1027C000640C0020982F002098110020B0110020E8
:1027D0006523000848B1074A1378013B012B07D84D
:1027E00093782BB90320FFF7ADBE0122024B1A707C
:1027F000704700BFA40C0020A4110020014B1878E2
:10280000704700BFA40C0020014B9870704700BFB8
:10281000A40C0020014B9878704700BFA40C002046
:10282000014BD870704700BFA40C00200122014B5F
:102830001A707047A4110020F8B51C4C1C4EE378A8
:10284000B268C3F342031AB9FFF774FE0020F8BD63
:10285000184A52F8235023782BB9174B1B78042BB6
:1028600001D1FFF767FE154F3B7893B100233B7012
:102870004FF080431B69E278DB0963F300022378A1
:10288000E27073B102F076F80028DFD101F0E4F8CD
:10289000DDE7002DDAD0B0680AF004F8A842E5D2EE
:1028A000D4E7054B1B78042BECD1CDE7982F002003
:1028B000A40C00201C07010824330020A4110020D0
:1028C00010B50B4B5A78012A03D0022A08D00020F9
:1028D00005E09C78012C03D101F022F9204610BDBF
:1028E000586809F0DFFFC728F1D9FFF7FFFDF6E7C9
:1028F000A40C002010B5074BD87810F0FD0404D1CB
:102900000220FFF71FFE204610BD0320FFF71AFE2E
:102910000120F9E7A40C002038B50A4D0024EB781B
:10292000033B012B08D80320FFF70CFE2046AC70B8
:1029300001F0A2F8012038BD0220FFF703FE204677
:10294000F9E700BFA40C002038B50A4D0024EB784D
:10295000033B012B08D80320FFF7F4FD2046AC70A1
:1029600001F0AAF8012038BD0220FFF7EBFD204658
:10297000F9E700BFA40C002070B59D4C9D4D206868
:10298000B0B109F08FFFB0F5FA6F11D300265520D2
:1029900026600DF011FC57200DF00EFC70200DF09C
:1029A0000BFC29783246B1FA81F04009FFF7E2FDCD
:1029B0002B7823B1904B93F82020904B1A7023680A
:1029C000DBB98F4E306809F06DFF40F6B73398429F
:1029D00013D92B788BB10CF05DFF70B9864CA37FB7
:1029E0005BB109F01BFF306053200DF0E5FB94F85C
:1029F000213013B970200DF0DFFB4FF080431B69CD
:102A0000EA78DB097F4C63F300020020EA70FFF7ED
:102A100083FE2378032B1ED8DFE803F0022857AD8E
:102A2000E36833B1984720B10120FFF78BFD002305
:102A3000A370236933B1984720B10120FFF782FDCD
:102A40000223A370636933B1984720B10120FFF7D7
:102A500079FD0123A3700DF0A9FA6B4B1B78002BB5
:102A600000F0E980BDE8704003F08CB9A369002B49
:102A7000F1D098470028EED002F06EF8634C207039
:102A800008BB06F08DF800F00100207008F0A4FBF0
:102A90002A785F4B1A700022574B9A772A685D4B51
:102AA000134063B95C4C2378012B08D002225B4BA6
:102AB00020469A610BF076FF20460BF040FB022087
:102AC000FFF740FDC7E70120DDE7E369002BC2D037
:102AD00098470028BFD00022514B1A704FF0007267
:102AE0004E4B9A612A684B4B1340B3F1807F10D054
:102AF000A37853B3013B012B0BD86378022B08D08A
:102B0000FFF768FC11200DF057FB0CF0C3FE002806
:102B1000FBD100F08BFF0023E3703D4B2A781B783C
:102B20009A4208D12A683B4B1340B3F1807F02D010
:102B3000A07800F06BFCA378012B19D0022B14D0E5
:102B4000002B88D1FFF7D6FE85E72B4B5B7E002B51
:102B5000DFD111200DF030FB0CF09CFE0028FBD1E2
:102B600047F230500AF0EBFDD3E7FFF7D5FE72E7EE
:102B7000FFF7EAFE6FE7236A002B3FF46CAF98473C
:102B800000283FF468AF01221B4B9A771F4B1B783C
:102B90002BB14FF40072214B9A6108F003FB012026
:102BA000FFF7BAFD38B92A78002A3DD06978024685
:102BB0000846FFF7DFFC0024194B1C70194BD3F8B3
:102BC000902042F40072C3F89020D3F8902022F4B1
:102BD0000072C3F8902000F01DFFFFF7ABFC00F07F
:102BE00011FB2046FFF7AEFC53200DF0E5FA32E76B
:102BF00098110020982F0020640C0020E01F002076
:102C0000A0110020A40C00209D1100209411002090
:102C10009C110020FF00000124330020000400402C
:102C2000A4110020000C0140034B1B78012BC2D1E2
:102C300011466878BDE770BD24330020012070473D
:102C400008B5FFF7FBFF08BD37B504460D46FFF793
:102C500071FC29462046FFF7F3FF60B1074B1A7855
:102C60004AB1074B20461B78D9090091C3F30013E2
:102C7000A9780DF0BFF903B030BD00BF982F002038
:102C8000AE2F002000B50B4B8FB0322193F82130CE
:102C9000094A01A805F0F5F801A809F0BBF80CF005
:102CA000F5FD09F0B7F8054809F0B4F80FB05DF884
:102CB00004FB00BF640C00206E0601087F060108BB
:102CC0002B4B13B51A7804464AB12A4B01211B78C5
:102CD000DB09009300230DF08DF902B010BD002830
:102CE000FBD0031FDBB2A02B12D8234B0146186880
:102CF00009F080FC20B1204603F0AEFF04F030F86C
:102D0000204603F0A1FF02B0BDE8104004F028B84F
:102D100000F12003DBB2072B07D800F007040120E5
:102D2000A040C0B203F0C6FFEDE700F15B03DBB2E9
:102D3000022B06D8243880B202B0BDE8104009F05A
:102D400003BC00F15803DBB21A2B07D80B4A32F848
:102D5000130002B0BDE8104009F012BC3334E4B2F5
:102D6000122CBAD8012102B0BDE8104003F0F2B82D
:102D7000982F0020AE2F002004100020E406010848
:102D8000244B13B51A7804464AB1234B1B78DB0950
:102D90000093002319460DF02DF902B010BD002854
:102DA000FBD0031FDBB2A02B06D803F055FF02B007
:102DB000BDE8104003F0D4BF00F12003DBB2072BC5
:102DC00007D800F007040120A040C0B203F07AFF4A
:102DD000EDE700F15B03DBB2022B05D8104602B031
:102DE000BDE8104009F0B0BB00F15803DBB21A2B6C
:102DF00005D8104602B0BDE8104009F0C1BB33341D
:102E0000E4B2122CC9D8114602B0BDE8104003F05C
:102E1000A1B800BF982F0020AE2F00202DE9F3416C
:102E20000446C0B1114E3378C3B10127DFF84080AA
:102E3000204603F020F8054698F80030E030DB0922
:102E4000009301210023327880B207FA05F50DF0D6
:102E5000D1F8AC43ECD102B0BDE8F08103F02AFF19
:102E600002B0BDE8F04103F07BBF00BF982F002007
:102E7000AE2F00202DE9F3410446C0B1114E337846
:102E8000C3B10127DFF84080204602F0F4FF98F834
:102E900000300546DB0900930023E0301946327804
:102EA00080B207FA05F50DF0A5F8AC43ECD102B0FD
:102EB000BDE8F08103F006FF02B0BDE8F04103F089
:102EC0004FBF00BF982F0020AE2F00202DE9F34107
:102ED0000446C0B1114E3378C3B10127DFF84080FA
:102EE000204602F0C8FF054698F80030E030DB09C4
:102EF000009301210023327880B207FA05F50DF026
:102F000079F8AC43ECD102B0BDE8F08103F0E8FE03
:102F100002B0BDE8F04103F023BF00BF982F0020AE
:102F2000AE2F00202DE9F3410446C0B1114E337895
:102F3000C3B10127DFF84080204602F09CFF98F8DB
:102F400000300546DB0900930023E0301946327853
:102F500080B207FA05F50DF04DF8AC43ECD102B0A4
:102F6000BDE8F08103F0C4FE02B0BDE8F04103F01B
:102F7000F7BE00BF982F0020AE2F00202DE9F041B2
:102F800004460D4601F0F4FBE0B92378013B122B17
:102F90004DD8DFE803F00A1A476167737676767BCF
:102FA000BD81858B96A1A4A7B200002363700C237A
:102FB000A3705B4B29461B782046002B40F0AD8068
:102FC00009F04EFF0120BDE8F0816378013B032B3F
:102FD0002DD8DFE803F0020C0F2109F01FFC030ECF
:102FE000A370030CE370030A23716071E1E708F03A
:102FF00078FBF4E72646A77804F11C08042FD8D8FC
:10300000F8B204F0E1FA030AF37030710236B04509
:1030100007F10107F2D1CCE70023A370E37023711D
:103020006371C6E76378022B04D0052B10D0FF2311
:103030002370BEE7E378A07840EA0320237940EAD2
:103040000340637940EA036000BA08F050FBB0E740
:10305000A07808F075FBACE7E278A178607808F01A
:10306000E7FEC0E762792379A17843EA02235BBADD
:10307000E27860789BB208F0F1FE9AE708F003FF6F
:1030800097E72946204608F047FC92E7002008F021
:103090000EFB08F036FB8CE708F055FF607088E700
:1030A00008F053FF030A6370A07082E76078A3788A
:1030B000E17840EA032040BA221D80B208F048FFC0
:1030C00077E76078A378E17840EA032040BA221DD0
:1030D00080B208F059FF6CE708F06BFF69E708F071
:1030E0009CFEDBE76078A378E17840EA032040BAF1
:1030F000221D80B208F0EFFE5BE76078A378E178EC
:1031000040EA032040BA221D80B208F0FBFE50E7DF
:103110000123044A637013704BE70DF029F951E75E
:10312000982F00209D11002010B54378044613B15C
:10313000FF23237011E08378013B032BF8D8DFE8ED
:1031400003F0021A28410378072B07D0082BEFD190
:103150002B4BDB78C3F34203C37010BDC178072942
:10316000FBD8BDE81040264BDA7861F34302DA70F1
:10317000186803F0C2BE0378072B05D0082BD7D1FF
:1031800001F000FCE070E8E7C078BDE8104001F015
:10319000FBBB0378072B0AD0082BC9D142790179F0
:1031A000C07801F0FEFBA071000AE071D5E7C2799A
:1031B0008379017943EA0223BDE810404279C0785F
:1031C00001F008BC0378072B0DD0082BB0D1237970
:1031D000C078617940EA032040BAA21D80B2BDE800
:1031E000104001F00FBC2379C078617940EA0320D8
:1031F00040BAA21D80B2BDE8104001F01DBC00BF66
:10320000982F002008B509F009FB014B186008BD94
:1032100000130020174B10B51C789CB9164B1B7877
:10322000052B08D0022B06D009F0F8FA134B1860D2
:10323000134B1C7010BD4FF080431B691B0605D457
:10324000FFF7F4FABDE81040FFF7DCBF0B4B18683E
:103250000028F7D009F026FB41F657339842E9D908
:10326000FFF7D0FFBDE810400122054B1A70FFF7B1
:10327000DDBA00BF982F0020243300200013002067
:10328000041300202DE9F0411B4C064625781DB1A2
:1032900001242046BDE8F081FFF7B0FA013801288B
:1032A00005D80320FFF74EF92846FFF7ADFA94F84A
:1032B0000080B8F1000FEBD1104D2B78052BE7D132
:1032C000B5F84C309B0702D50D4F3C7824B9FF2E42
:1032D00094BF00240124DCE7FFF790FA0328D7D835
:1032E00087F80080FFF78EFF28460AF0D5FF2846B2
:1032F00001F07EFACDE700BF982F00202433002094
:1033000004130020704700001A4B70B59C6C0F2608
:1033100044F4C0649C649B6C012301F003048B4063
:1033200021F0030101F1804101F5A0518D68A40055
:10333000C0F38320A04006FA04F425EA04052843DC
:103340008860D8430C4912F0010F8C6814BF1C43ED
:1033500004408C6012F0020FCA6814BF1A43024086
:10336000CA60054A536111680B43136053680340F8
:10337000536070BD000C0140001800400F281FD89A
:10338000DFE800F0080C0F121518181818181B1B8E
:103390001B1B1B1B062108460BF0B7B90621072093
:1033A000FAE706210820F7E706210920F4E70621BD
:1033B0000A20F1E706211020EEE706212120EBE7A5
:1033C000704701207047000008B5FFF7FAFFD0B141
:1033D000012207214FF08040FFF796FF0720FFF7FB
:1033E000CDFF03220E210848FFF78EFF0E20FFF7C6
:1033F000C5FF054803220F21FFF786FFBDE80840FF
:103400000F20FFF7BBBF08BD000800402DE9F047C3
:103410003023054683F31188FFF7D6FF4FF00009EC
:103420000127734EDFF8CC8156F8043B95B1012D8E
:103430004FD143454DD123F00F0A03F00F0307FA94
:1034400003F421460522504624040BF0CCFACAF8B6
:10345000184001E0581CEED109F10109B9F10E0F35
:10346000E2D105240127644EDFF8909156F8040B51
:10347000002D3AD0012D40F0AE80484540F0AB80A1
:1034800000F00F01202207FA01F120F00F000BF0ED
:10349000AAFA00BF00BF00BF00BF00BF00BF00BF4F
:1034A00000BF00BF00BF00BF00BF00BF00BF00BF24
:1034B00000BF00BF00BF56F8040C032200F00F0845
:1034C000414620F00F00FFF71FFF4046FFF756FF71
:1034D0000DE0591CC0D003F00F01202207FA01F1C2
:1034E00023F00F000BF07FFAB6E7421CC8D1013C75
:1034F000BCD184F3118872B64FF0E0220120136929
:1035000023F0010313613E4B3E4A5A610022A3009F
:1035100003F1604303F56143D3F80011D5B2012DE7
:1035200094BF002101F0010109B1C3F8800101320B
:10353000202AF1D10134082CE8D1334C636843F0E0
:1035400000736360314B1A6802F009021A601A684E
:1035500042F46C3242F004021A6040F2B3321A6252
:103560002B4B43F001039847236943F00403236185
:1035700030BF284B43F0010398474FF0E022236906
:1035800023F0040323611369234C43F00103136107
:10359000E36943F08003E361A36C43F40073A36425
:1035A00009F08CFC04F044F8E36C43F00803E36496
:1035B000E36CA36C43F48053A364A36CE36C43F00B
:1035C0001003E364E36CFFF79DFE002383F311888F
:1035D00062B6BDE8F087431C89D000F00F0140229D
:1035E00007FA01F120F00F000BF0FDF97FE700BFB3
:1035F0003C07010803080040D00701080D080040FF
:1036000000180040FFFF070000ED00E0000001404F
:10361000A807010874070108000C01400120704749
:1036200001207047C31F10B504460B2B18D8DFE8E4
:1036300003F0111717171717151313171706042080
:10364000FFF7EEF82046FFF7E9FF10B12046FFF73D
:10365000E7FF10BD0320F3E70720F1E70520EFE7C0
:103660000120EDE701238B40034202D00846FFF71B
:10367000D9BF704708B50D4B5A69D20706D51A68ED
:10368000002022F001021A60FFF7CCFF4022084B15
:10369000C3F88020BFF34F8FBFF36F8F0122034B1E
:1036A0005A61BDE808400AF0F3B800BF00180040B6
:1036B00000E100E008B50D4B586910F0020006D09B
:1036C0001A68012122F002021A60FFF7CBFF802264
:1036D000074BC3F88020BFF34F8FBFF36F8F0222D9
:1036E000024B5A61BDE808400AF0D2B80018004009
:1036F00000E100E008B50E4B586910F0040006D058
:103700001A68022122F004021A60FFF7ABFF4FF49F
:103710008072084BC3F88020BFF34F8FBFF36F8FC9
:103720000422034B5A61BDE808400AF0B1B800BF5B
:103730000018004000E100E008B50E4B586910F099
:10374000080006D01A68032122F008021A60FFF769
:1037500089FF4FF40072084BC3F88020BFF34F8FEE
:10376000BFF36F8F0822034B5A61BDE808400AF08F
:103770008FB800BF0018004000E100E008B50E4B14
:10378000586910F0100006D01A68042122F01002C7
:103790001A60FFF767FF4FF48062084BC3F8802080
:1037A000BFF34F8FBFF36F8F1022034B5A61BDE8F9
:1037B00008400AF06DB800BF0018004000E100E0CA
:1037C00038B5254B5C69A20604F4787507D51A68EC
:1037D000052122F0200228461A60FFF743FF600609
:1037E00008D51D4A06211368284623F040031360BC
:1037F000FFF738FF210608D5174A07211368284626
:1038000023F080031360FFF72DFFE20508D5124A6D
:1038100008211368284623F480731360FFF722FF02
:10382000A30508D50C4A09211368284623F4007320
:103830001360FFF717FF4FF48032084BC3F8802066
:10384000BFF34F8FBFF36F8F4FF47872024B5A6103
:10385000BDE838400AF01CB80018004000E100E064
:1038600038B52A4B5C69620504F47C4507D51A68B3
:103870000A2122F4806228461A60FFF7F3FE23052E
:1038800008D5224A0B211368284623F400631360ED
:10389000FFF7E8FEE00408D51C4A0C21136828460F
:1038A00023F480531360FFF7DDFEA10408D5174A07
:1038B0000D211368284623F400531360FFF7D2FE4E
:1038C000620408D5114A0E211368284623F4804368
:1038D0001360FFF7C7FE230408D50C4A0F211368B5
:1038E000284623F400431360FFF7BCFE0222084B76
:1038F000C3F88420BFF34F8FBFF36F8F4FF47C4228
:10390000024B5A61BDE8384009F0C2BF00180040C0
:1039100000E100E008B50E4B586910F4802006D095
:103920001A68122122F480221A60FFF79BFE0822F7
:10393000084BC3F88420BFF34F8FBFF36F8F4FF452
:103940008022034B5A61BDE8084009F0A1BF00BFC7
:103950000018004000E100E010B5074C23784BB997
:1039600001F046F902F0A5FA08F0C0FD02F0A2FA53
:1039700001232370012010BD0813002010B5044C52
:1039800023781BB101F00EF900232370012010BD34
:103990000813002038B5154C00252378032B22D8B6
:1039A000DFE803F0020B131B0A2311488370C57074
:1039B00008F0C0FD0123237038BDF6230C48C37006
:1039C000857008F0B7FD0223F5E7F62308488370F9
:1039D000C57008F0AFFD0323EDE70A2304488570A6
:1039E000C37008F0A7FD2570E6E700BF06130020AE
:1039F00020130020054B1B7833B1054B1B780BB906
:103A0000FFF7C8BF0CF0A2BB704700BF0B1300202C
:103A1000982F002008B5044B1B780BB9FFF79CFFCB
:103A200002F0A4F808BD00BF0813002008B5064B3B
:103A30001B780BB1FFF7A2FF0023044A1370044A5E
:103A4000136002F081F808BD08130020181300204D
:103A50001C1300200120704708B5FFF7FBFF08BDCD
:103A6000014B1878704700BF09130020014B1870F4
:103A7000704700BF09130020014B1870704700BF4A
:103A800009130020014B1878704700BF0A1300206B
:103A9000084B10B50446187058B9FEF7AFFE02285F
:103AA00007D80320FEF74EFD2046BDE81040FEF784
:103AB000ABBE10BD0A130020FFF7EABF024B187817
:103AC00080F00100FFF7E4BF0A130020084B1A78CA
:103AD000084B1B784BB982F00102A0F5A443203BB0
:103AE0001F2B8CBF1046012070470022F5E700BF56
:103AF0000A1300200913002000231946064A937276
:103B000013609375D360054A0333212B917242F8F9
:103B10000C1BF9D1704700BFD80F0020C80C002043
:103B200008B503F0F5FDFFF7E7FF0022014B1A602F
:103B300008BD00BF1413002001EB410201460148FB
:103B4000FCF724BD9C2F002030B40E4B0E4A1B788E
:103B5000517813F0010F0D48C3F3000406D030BCB8
:103B6000137803EB43031844FFF7E6BF9378D57847
:103B70009D42F4D903EB4303C5186C70C454AC7078
:103B8000EDE700BFC42F0020141000209C2F002060
:103B900010B500F0E1FF044640B9002320461A4664
:103BA0001946013405F09AFE402CF6D10449402014
:103BB0008B780A78497805F091FE012010BD00BF8E
:103BC0009C2F00200120704710B5FFF7C5FEFEF7BF
:103BD000CDFD01F027F890B1094C012220464FF4A9
:103BE00000710AF000FF4FF40073A36104F5006454
:103BF0000122042120460AF0F6FE0423A36110BD31
:103C00000004004000230E4A10B513700D4A0E4CFC
:103C100013700E4A136004F0C3FF68B900F09CFFF4
:103C200050B907F0E9FA4FF00073A36101F01AFCF4
:103C3000BDE8104003F0F5B94FF40073F5E700BF9D
:103C4000071300200C130020000400401013002074
:103C500008B503F0B7F905F00FFE03F044F90C4B7B
:103C6000188060F07F001870188803F03FF9002278
:103C7000084B1A7005F0D0F804F062FF05F0B4F8B4
:103C800001F012FB18B1BDE80840FFF7BBBF08BD4B
:103C9000AE2F0020D81C002037B504460D4601F099
:103CA00005FB002800F0E580002D00F0E28047F6DB
:103CB00013639C423AD8B4F5FC4F07D247F603434E
:103CC0009C4200F0D380284603B030BDA4F5FC44EC
:103CD000132CF8D801A353F824F000BF433D00088B
:103CE000733D0008A53D0008D53D0008033E0008CF
:103CF000293E0008C73C0008C73C0008C73C000834
:103D0000C73C0008C73C0008C73C0008C73C000887
:103D1000C73C0008C73C0008C73C0008C73C000877
:103D20005B3E0008633E0008673E000847F64363B9
:103D30009C42C8D10122504B1A7000224F4B1A608E
:103D4000C1E7002301200DF107018DF80730FEF7D0
:103D50006FFB9DF80730042B02D013F0FD0FB2D19A
:103D60000122474B11461878FEF704FC454B01220F
:103D700016E0002301200DF107018DF80730FEF752
:103D800057FB9DF80730042B02D013F0FD0F9AD19A
:103D90003B4B012218780221FEF7ECFB0222394B43
:103DA0001A7090E7002301200DF107018DF807300C
:103DB000FEF73EFB9DF80730042B02D013F0FD0FF9
:103DC00081D12F4B012218780321FEF7D3FB032268
:103DD0002C4BE5E7002301200DF107018DF807309A
:103DE000FEF726FB9DF80730042B03D013F0FD0FE0
:103DF0007FF469AF01220421214B1878FEF7BAFB4A
:103E000061E7002301200DF107018DF80730FEF76F
:103E10000FFB9DF80730042B03D013F0FD0F7FF448
:103E200052AF01220521E7E7002301200DF1070130
:103E30008DF80730FEF7FCFA9DF80730DA1E012AEC
:103E400002D9002B7FF43FAF0D4B012218780621D9
:103E5000FEF790FB04220B4BA2E70020FFF718FEB1
:103E600031E7094B83E7FFF729FE2CE7FFF7F0FE68
:103E700029E7054627E700BF0C1300201013002098
:103E8000982F0020051300200A13002070B5FEF7BC
:103E900073FD002501261C4C206858B1A37A4BB94C
:103EA00008F000FD6368984204D301212089A672BE
:103EB000FFF7F2FE0335062D04F10C04ECD10025CA
:103EC0000126124C206858B1A37A4BB908F0EAFCDD
:103ED0006368984204D301212089A672FFF7DCFEB3
:103EE0000335212D04F10C04ECD1094B1A783AB1B9
:103EF00000221A700BF0CEFC0028FBD1FFF7A8FEC1
:103F000000F02EFF70BD00BFD80F0020C80C0020AD
:103F10002613002008B5064B1B780BB9FFF71CFDD4
:103F20004FF40072034B9A61BDE8084008F040BCB2
:103F300008130020000400402DE9F7430D46AB4A6A
:103F4000897804461368E9B1032B00D80133A84FE0
:103F50001360FEF7EFFA3889844217D0B88A84429A
:103F60000CD1012695F802804FF00C09B8F1000F32
:103F70000ED008F053FC09FB06F6B8519D4B002605
:103F80001F4633E0002BE2D0013BE0E70026E9E7E3
:103F900009FB06F607EB060999F80A300BB9BB5185
:103FA000ECE74146FFF778FE89F80A8047F806807B
:103FB0000028E3D1002003B0BDE8F08309FB06F63A
:103FC00007EB060999F80A300BB9BB511DE04146D1
:103FD0002046FFF761FE89F80A8047F80680A0B9FD
:103FE000E8E701360B2E03F10C030ED01A89944238
:103FF000F7D195F802804FF00C09B8F1000FDDD031
:1040000008F00CFC09FB06F6B85129462046FFF7DC
:104010005DFD0028CED02946204601F075FA002823
:10402000C8D047F610639C4236D8B4F5FC4F1BD27B
:1040300047F620039C4200F03A8147F603439C4236
:10404000B8D02946204600F01DFD0028B2D02946F0
:104050002046FFF717F90028ACD02946204603B0C8
:10406000BDE8F043FEF7F0BDA4F5FC44013CAB789D
:104070000F2C3CD8DFE814F05B007B009B00C800ED
:10408000E30003013800400146014C015201580190
:104090005E0164016A017001A4F5FC43403B9AB2E1
:1040A000032ACED8032BCCD801A252F823F000BFAC
:1040B000C1400008CF400008DB400008B53F0008C1
:1040C000AB78002B3FF476AFFEF7DCFD72E7AA7801
:1040D000494B02B101221A706CE7AB78002B3FF418
:1040E00069AFFEF7A3FB65E7444A137062E7002B54
:1040F0003FF460AF424C2378012B3FF45BAF0023C9
:1041000001200DF107018DF80730FEF791F99DF8B8
:104110000730042B03D013F0FD0F7FF44BAF0022C8
:1041200001212078FEF726FA0522364BD3E7002B33
:104130003FF440AF324C2378022B3FF43BAF0023D7
:1041400001200DF107018DF80730FEF771F99DF898
:104150000730042B03D013F0FD0F7FF42BAF0022A8
:1041600002212078FEF706FA0622264BB3E7002B41
:104170003FF420AF224C2378032B3FF41BAF0023E6
:1041800001200DF107018DF80730FEF751F99DF878
:104190000730042B03D013F0FD0F7FF40BAF002288
:1041A00003212078FEF7E6F90722164B93E7002B50
:1041B0003FF400AF124C2378042B3FF4FBAE0023F6
:1041C00001200DF107018DF80730FEF731F99DF858
:1041D0000730042B03D013F0FD0F7FF4EBAE002269
:1041E00004212078FEF7C6F9E4E600BF141300208E
:1041F000D80F0020C80C00200B130020071300204C
:10420000982F002005130020002B3FF4D3AE554C0F
:104210002378052B3FF4CEAE002301200DF10701DA
:104220008DF80730FEF704F99DF80730042B03D012
:1042300013F0FD0F7FF4BEAE00220521D1E7002B65
:104240003FF4B8AE474C2378062B3FF4B3AE0023BF
:1042500001200DF107018DF80730FEF7E9F89DF810
:104260000730DA1E012A02D9002B7FF4A3AE002208
:1042700006212078FEF77EF908223B4B2BE7002B26
:104280003FF498AE374C2378002B3FF493AE0025D3
:1042900001200DF107018DF80750FEF7C9F89DF8D0
:1042A0000730012B3FF686AE2A46294699E7AB78C0
:1042B000002B3FF47FAE00F04FFC80F00100C0B255
:1042C00000F052FC00F048FC28B106F07DFF4FF4EE
:1042D0000072264B0EE004F063FC00287FF46AAE07
:1042E00000F03AFC00287FF465AE06F085FF4FF041
:1042F00000721E4B9A615DE60BB104F07FFD04F085
:104300004FFCE1E7002B3FF455AE04F053FD51E6BE
:10431000002B3FF44FAE04F059FD4BE6002B3FF469
:1043200049AE04F011FD45E6002B3FF443AE04F026
:104330001FFD3FE6002B3FF43DAE04F0B7FC39E62D
:10434000002B3FF437AE04F0C3FC33E6002B3FF400
:1043500031AE04F0D1FC2DE6002B3FF42BAE04F07F
:10436000DFFC27E6982F0020051300200004004002
:10437000014B1870704700BF18130020014B1878CC
:10438000704700BF18130020F8B505460C465A4E7A
:104390005A4F2146284600F0B1FB50B1062C08D8F0
:1043A000DFE804F00408609696A3A3000022524BB5
:1043B0001A60F8BD326892BBA5F14203042B0BD8FA
:1043C000DFE803F003161B2025000022FF2311461F
:1043D0004220FDF7B3FE01224FF4FA712846FDF7A3
:1043E000F1FE2846FDF788FE08F018FA3060E0E795
:1043F0000022FF2311464320EBE70022FF23114652
:104400004420E6E70023FF2219464520E1E7002388
:1044100046201A461946FDF791FEFF22DCE71046BA
:1044200008F040FA47F22F53984203D90524344B41
:104430001C70AEE7334B1B7883B9462D0ED1324B3F
:104440001B78042B3FD103232D4C28462370FF23D8
:104450001A461946FDF772FE24789AE77A7E8AB3E7
:104460000324E4E73068F8B9A5F14203032BA0D890
:10447000DFE803F0020B10150022FF231146422053
:10448000FDF75CFE0122C821A8E70022FF231146A8
:104490004320F5E70022FF2311464420F0E70023E4
:1044A000FF2219464520EBE708F0FCF94EF65F23A2
:1044B000984201D90624BAE77B7E0BB10424B6E703
:1044C000104B1B786BB12846BDE8F840FDF714BED1
:1044D000FF224FF4FA612846FDF774FE2846FDF7E7
:1044E0000BFE0022064B1A7063E70022044B1A7081
:1044F000FEF79CF9E7E700BF1C130020640C0020C6
:1045000018130020982F002024330020014B197825
:10451000FFF73ABF181300200120704770B5064618
:104520000D4642200021FDF737FE10B90024204639
:1045300070BD00214320FDF72FFE0028F6D000219A
:104540004420FDF729FE0028F0D000214520FDF78A
:1045500023FE0028EAD000214620FDF71DFE00289A
:10456000E4D029463046FFF7D7FF04460028DDD0C7
:104570000022044B29461D70034B30461A60FFF79A
:1045800003FFD4E7181300201C13002070B50D465C
:104590001446FDF71DFF064680B155B3174B5B7EF1
:1045A0002BBB013D052D09D8DFE805F0030C1208EF
:1045B00008182CB102214220FFF7B0FF304670BD31
:1045C0000121F8E714B102214320F5E70121FBE7BF
:1045D00014B102214420EFE70121FBE714B10221CD
:1045E0004520E9E70121FBE702214620E4E71E46DA
:1045F000E4E7002CF8D10121F7E700BF640C0020AC
:1046000008B50C4B1B789BB9FEF7F8F880B90A4B3C
:104610001A783AB1094A527E52B95978BDE8084031
:10462000FDF7A8BF064B1B78042B01D01146F5E718
:1046300008BD00BF18130020982F0020640C002034
:1046400024330020704700002DE9F04F434F85B020
:1046500005460E46FFF7F6FFFFF7D2FF3C78002C29
:1046600032D03F4D2B6813B908F0D8F8286028687D
:1046700008F018F941F28733984205D93B780133A5
:104680003B7008F0CBF828603B78013B032B17D830
:10469000DFE803F0020C10140022FA20114605F0A6
:1046A000B3FF0024204605B0BDE8F08F0022FA21B8
:1046B0001046F4E70021FA220846F0E7FA22F6E76E
:1046C00000243C702C60EDE7264B1B78BBB93146CB
:1046D0002846FFF75DFA0028E3D031462846FFF769
:1046E00071FA0028DDD03146284600F0EDFD044681
:1046F0000028D6D031462846FDF77EFDD2E701AF2F
:10470000BA464FF00A08DFF860B0DFF860900A227E
:1047100059465046FBF73AFF99F81F30E2B2B3FB17
:10472000F8F1914215D9312B38780AD90023FA22B1
:104730001946013405F0D2F80A2C07F10107E6D139
:10474000C5E71D2B4FF000038CBFFA221A46FA2151
:10475000EFE7002338781A461946EAE70C130020E1
:104760001013002007130020E4070108640C002048
:1047700070B505460E46FDF7DDFEFEF73FF810B1B9
:104780000320FDF7DFFE2B780A2B0ED10124084B06
:1047900031461C70074B28461B781BB908F060FB9C
:1047A000204670BD0BF0E4FDFAE70020F9E700BFFA
:1047B00026130020982F0020012810B5044611D0A0
:1047C00002280AD1FEF71AF80138012805D803207B
:1047D000FDF7B8FE0020FEF717F82046BDE81040B0
:1047E00007F0C0BF014B1870F7E700BF641100204D
:1047F000014808F0A4BF00BFA08601000E4BF0B531
:104800001B6893B11C2202FB00300C4A01231646A0
:1048100030F8115032F8027BDCB2AF4206D104F01E
:10482000070336F8133020F81130F0BD0133092B9F
:10483000F0D10023F7E700BF2813002094080108F7
:104840008C222221014803F0FDBD00BF2C13002063
:10485000002208B5064B5A70FFF7F2FF06F0FEFC87
:104860002D2802D02D2006F0F6FC012008BD00BF47
:104870004C0D002010B5084B1C78012C0AD15A7839
:10488000104307D118708C220448222103F092FDB6
:10489000204610BD0020FCE74C0D00202C1300200A
:1048A0002DE9F74304460D4606F02AFD00274FF098
:1048B0001C092D4EDFF8B4807080E0B2854250D9DB
:1048C00000232B4A0FE01CF801EBBEF1FF0F01D0D3
:1048D00070451BD001310E29F5D10133DBB2052B18
:1048E00002F10E023BD094460021ECE7012A07D1E9
:1048F000012B05D173888DF800708DF8017016E0DA
:104900008DF801308DF80010738810E0D8F8002081
:104910002AB309FB032333F81120110AD3B2120A78
:10492000E4D1002BECD18DF800308DF801308DF8FA
:104930000230009804F0BAF8C0F307238DF80400A1
:10494000C0F307408DF805308DF806009DF806305D
:1049500020469DF804209DF8051004F0BFFF0134A7
:10496000ABE703B0BDE8F0834C0D00202813002016
:10497000500D0020024B1878431E58425841704792
:104980004C0D00200120704710B5044640B9FFF7D8
:1049900057FF2046FFF76EFFBDE81040FFF758BFF6
:1049A00010BD38B5A0B9042911D80D2A0FD80E258D
:1049B00005FB0122550005F1220003F0ADFC044681
:1049C00005F1230003F0A8FC44EA002080B238BDC2
:1049D0000020FCE738B51D4698B9042911D80D2AE6
:1049E0000FD80E2404FB01225400D9B204F1220096
:1049F00003F0FAFC290A04F12300BDE8384003F073
:104A0000F3BC38BD2DE9F843002405460F46164691
:104A1000A14600F12208BC4208EB040001D1BDE828
:104A2000F8832B198B2B04DC03F076FC3055013412
:104A3000F1E706F80490FAE72DE9F04105460E4645
:104A40001746002400F12208B44208EB040001D10B
:104A5000BDE8F0812B198B2B02DC395D03F0C4FC1F
:104A60000134F1E708B5054802F056FABDE8084000
:104A70008C222221024803F09DBC00BFEF070108F1
:104A8000800C010808B50A46094903460878012840
:104A90000CD1A3F5A443203B1F2B06D9907820B15D
:104AA00050781178FFF7AAFE002008BD0120FCE72E
:104AB0004C0D0020FF2810B504461CD10E4BD3F836
:104AC000683123F07F43B3F5DC4F0DD100226E2314
:104AD0001146FDF733FB20460121FDF747FB204639
:104AE000BDE81040FDF708BBB3F5DC0F03D1002390
:104AF0006E221946EDE710BD5C0E00200339012936
:104B000010B5044603D8442803D8412807D801200B
:104B100017E04528FBD10023FF22194602E00022BE
:104B2000FF231146FDF70AFBFF224FF4FA612046EE
:104B3000FDF748FB2046FDF7DFFA0020FFF718FCE1
:104B4000002010BD037C542B06BF024B18780120B7
:104B5000704700BFC5130020024B1878C0F3400017
:104B6000704700BFA82F002010B5094C237860F3D0
:104B7000410323709B0707D504F036F921681820FC
:104B8000BDE8104003F04CBC03F0F0FFF6E700BFB7
:104B9000A82F0020024B1820196803F041BC00BF69
:104BA000A82F002010B5012220214FF0804009F0ED
:104BB0001AFF4FF080434FF400120C4C9A612046CC
:104BC0000122102109F00FFF4FF48013A4F5806437
:104BD000C4F81834012220464FF4007109F003FF95
:104BE0004FF000730120A36110BD00BF000800401A
:104BF00010B5012220214FF0804009F0F4FE4FF063
:104C000080432022064C9A61204601224FF4007115
:104C100009F0E9FE4FF400730120A36110BD00BF4D
:104C20000004004038B54FF0804420224FF400418A
:104C30004FF0804009F0D7FE2369134AC3F3C03315
:104C400013702022114D1146114809F0CCFE284660
:104C50002022012109F0C7FE284601224FF40071ED
:104C600009F0C1FE4FF400732046AB610122202100
:104C700009F0B9FE2023204600228021A36109F01B
:104C8000B2FE012038BD00BFC61300200004004062
:104C9000000800402DE9F341DFF8B4801C46D8F845
:104CA000003005460E4617460BB907F0B7FDD8F899
:104CB000000007F0F7FDB0F5FA7F0DD907F0AEFD63
:104CC0000022C8F8000004232846114607F080FBA4
:104CD000054618B907F0F0FB002535E01D4866F0E1
:104CE0005E0602210670477007F0D2FB0028F1D162
:104CF00020469DF8201007F0D5FB0028EAD107F0E8
:104D0000DBFB267816F001061ED1AE2301272F22E9
:104D10003146237010482346009706F0AFFB4FF44E
:104D2000FA7008F00CFDB1233146324623700A4870
:104D30002346009706F0A2FB4FF4FA7008F0FFFC40
:104D40000649054806F0C0FB284602B0BDE8F081E0
:104D5000E0130020DC130020020C00400904004096
:104D60002DE9F7430123002200931146AB4BAC48D9
:104D7000FFF790FF4FF08043AA4D1B69EA78AA4ED7
:104D8000C3F3C03312F0010FA84C337000F0A880B9
:104D9000002B00F0A3806623A54F237038680028FD
:104DA00040F0A08007F03AFD386020780BF004FA5C
:104DB00007F0A4FB9F4C10F0020F4FF001024FF0E0
:104DC0001001204600F0958009F00DFE1023A3612C
:104DD0002878994C994D9A4FDFF86882002840F066
:104DE0008D804FF080431B691A0640F1898023783B
:104DF000092B04D01BB1FF2B01D009232370012301
:104E00003B70EB7F904F0D2B00F2B6804FF080434C
:104E10001B69190600F1B0803B6813B907F0FEFC6E
:104E20003860386807F03EFD40F6B733984202D943
:104E30000120FEF71BFE854B1B7823B196221146FD
:104E4000104605F0E1FB3378002B40F098800022FB
:104E5000FF20114603F0CAFE0023C8211A46402055
:104E600004F03CFD7A4F23783A78DFF8E8919A42D3
:104E700002D1D9F80030C3B907F0D0FC0121237862
:104E8000754AC9F80000117023F00402013A022AA1
:104E90003B700AD898F80320182063F3071288F8AB
:104EA0000320D8F8001003F0BBFA6B7E6B4F002B89
:104EB00000F0DE8001233B7023786A7E042B684F6C
:104EC00040F2E580002A40F0E9814FF47A72092B24
:104ED0003A8040F0E2804FF47A73DDE064235BE7D0
:104EE000652359E707F0DEFCB0F57A7F3FF65AAF4D
:104EF0005EE709F078FD4FF4801368E7062803D0D9
:104F00004C4B1B691B040ED46B7E33B92378042BE6
:104F100003D0082B1CBF082323703B78002B7FF4A1
:104F20006EAF08236AE76B7E002B7FF468AF2278B0
:104F3000A2F10803012B05D912F0FB0F02D0FF2AC2
:104F40007FF45DAF98F8033003F0B003102B00D06E
:104F500032B90523002201212370FDF70BFB4EE738
:104F6000202B09BF06230723002202211BBF00229A
:104F7000032123702370F0E700233B605BE74FF0D1
:104F800080431B691A0611D52378092B0ED1002204
:104F9000FF21104603F02AFE0023C82219464020B4
:104FA00004F09CFC3378002B3FF451AFEB7F162BC1
:104FB0002FD84FF080431B691B063FF553AF294F95
:104FC000DFF8A4903B782BB907F028FC0123C9F83F
:104FD00000003B70D9F8000007F064FCB0F57A7F60
:104FE000224F07D93B7883F001033B7007F016FC92
:104FF000C9F800003F781FB100221146104629E78A
:105000003A463946384603F0F1FD3B463A463946C2
:1050100025E70022134B1A7024E700BFC8130020B5
:10502000020C0040982F0020C6130020D11300204E
:10503000CC1300200008004005130020640C002061
:10504000E4130020A82F0020D8130020D213002042
:10505000C3130020B8130020C9130020E51300205B
:10506000A22F0020D6130020BC130020D71300204D
:105070003B7823B12378042B06D900231BE7FFF7E5
:105080007DF90128F9D1F5E704332370F5E7002A0B
:1050900040F004814FF496733B80D9F8000007F08C
:1050A00001FC3B88984208D907F0B8FB7D4AC9F853
:1050B0000000137883F001031370FDF79FFB0028B5
:1050C00049D12378013B082B00F2C480DFE803F0CC
:1050D000054C6C92054C6C92B600724B1B7863B316
:1050E00033780BBB40F2E9333A889A421CD1002254
:1050F000FF20114603F07AFD0023C8211A46402004
:1051000004F0ECFB98F8014014F0F00408D10023FF
:1051100020461A461946013404F0E0FB402CF6D133
:10512000012003B0BDE8F0830021FF22084603F010
:105130005DFDC82300221146E1E7EB7F162B04D862
:105140004FF080431B691F06D1D53378002BCED09A
:105150006B7E002BE8D100221146104603F046FD7D
:1051600000231A460021CAE74E4B1B786BB13378F7
:1051700023B940F2E9333A889A42B8D0FF2200209E
:10518000114603F033FDC823EBE7EB7F162B04D861
:105190004FF080431B691C06A9D53378002BA6D09D
:1051A0006B7E002BEAD1D6E73E4B1B787BB1337880
:1051B00023B940F2E9333A889A4298D080220A21F2
:1051C000FF2003F013FD80230A22FF2197E7EB7FE6
:1051D000162B04D84FF080431B69180687D5337807
:1051E000002B84D06A7E002AE8D11146104603F0D5
:1051F000FDFC87E72B4B1B787BB133782BB940F252
:10520000E9333A889A423FF472AFFF210022084600
:1052100003F0ECFC0023C8228DE7EB7F162B05D8AA
:105220004FF080431B6919067FF561AF3378002B7F
:105230003FF45DAF6B7E002BE7D18CE73378002B1A
:105240003FF455AF0022FF21104603F0CFFC0023AE
:10525000C82287E70122134B1A70EB7F162B0DD85B
:105260004FF08042146914F0800407D12246214691
:10527000FF2003F0BBFC23462246A6E73278002A33
:105280003FF435AF4FF080421269120602D500227A
:10529000FF21ABE7162B7FF635AF5CE740F2E93232
:1052A00015E600BFC91300200120704708B547F676
:1052B0001C63984206D119B163200AF07DFF0021DA
:1052C000084608BD0121FBE7F0B52B492B4A0B78B6
:1052D00085B013F004003CD01278C2F3001262F3E0
:1052E000C3030B70FFF756FC254B1B7873B305F017
:1052F0006BFF0A22234901A8FBF748F900250A277A
:10530000214E01ACF27FEBB2B2FBF7F1994225D905
:1053100000231D2A87BFC82219461A46C8212078B3
:10532000013504F0DBFA0A2D04F10104EAD100246E
:10533000A4F11203DBB2092B05D9002320461A463B
:10534000194604F0CBFA0134412CF1D1012005B00B
:10535000F0BD137860F304131370C5E733B9013A55
:10536000082A03D81A46C8211220D9E7002320783A
:105370001A461946D4E700BFA82F0020AE2F002000
:10538000A42F0020E4070108640C002070B5174C1E
:105390002378D80727D5A078154900220D4611F8A3
:1053A000016BD3B2864203D00132102AF7D11346E3
:1053B0002278D10741BF03F1FF33DBB26FF3000264
:1053C00022700E2B9DBF0133DBB2E85C287805F01C
:1053D00042FF05F043FFBDE870401A280CBFFC20D7
:1053E0007E2006F00BB805F039FFD5E7A82F002086
:1053F000C80F002010B51C2420460021013402F003
:10540000B6FF2C2CF8D110BD38B50025104CE37830
:105410006FF30303E370238823F0FE031B051B0DCA
:1054200043F4805343F0060323800A4B1D700A4B5C
:105430001D700A4B1D70FFF7DDFF094B2168182016
:105440001D7002F0EDFFBDE83840FFF7A3BB00BFC1
:10545000A82F0020D0130020A02F0020E813002048
:10546000D313002010B5182002F074FF094C2060FF
:1054700008B9FFF7C9FF23785B074CBF0020022063
:1054800000F068FC044B01201A786FF304121A70C4
:1054900010BD00BFA82F0020AE2F002010B505F0D2
:1054A000DDFE002302461846054911F8014B9442DF
:1054B00008BF18460133DBB2102BF6D110BD00BF78
:1054C000C80F002010B50446FFF7E8FF034B214644
:1054D0001870BDE810401C3002F049BFD013002006
:1054E00008B5FFF7DBFF064B18701C3002F014FF05
:1054F00007289FBF034BDA7860F30302DA7008BD18
:10550000D0130020A82F002070B547F6166304467C
:105510009C420D4688780AD048B10022AE4B1A70E2
:10552000AE4B197819B10126AD491A700E70AD4A0B
:10553000138808B301339BB21380FBB1652C1DD1D6
:1055400001220220A84B1A7000F0EFFFAC78A74BA5
:10555000002C40F0F88020461C7000F0E6FFA44BC1
:105560001B78DD0604D5A34B1B69980600F1E58086
:10557000652000F0A3FBE1E0013BDCE79E4E3378C1
:10558000F3B10022984B01201A7000F0CEFF47F6CD
:105590002A039C4200F2868047F61F039C4216D8DD
:1055A000E72C4BD8E12C31D8162C00F038813FD8AD
:1055B000042C00F00581072C00F03F810124BDE0A0
:1055C000652CE4D10028C1D1874B1870BCE7A4F545
:1055D000F044203C0A2CF1D801A353F824F000BF7A
:1055E0004D570008B15A0008BD550008EB58000897
:1055F000BD550008BD550008BD550008A359000859
:10560000D75900087B59000889590008E23C052C4D
:10561000D4D801A353F824F06B5800088F58000821
:1056200057580008BD5500087D5800085758000815
:105630001A2C00F0B780652CC0D187E745F2022311
:105640009C4200F0E48113D840F607039C4200F02E
:105650002A81B4F5A44F00F0C381B4F5A97FADD180
:10566000AC78E020002C00F01B81FDF729FBA0E0C6
:1056700045F221239C4200F0828047F213039C42B2
:105680009CD1AC78002C99D000236E211A46FF20C3
:10569000FCF754FD0121FF20FCF768FDFF20FCF71B
:1056A0002BFD4BE0B4F5F84F00F01081A4F5FC445D
:1056B000A3B21C2B82D81C2C80D801A353F824F051
:1056C000395A0008535A0008635A0008BD550008AB
:1056D000BD550008735A0008BD550008BD550008A7
:1056E000BD550008BD550008BD550008BD55000852
:1056F000BD550008BD550008BD550008BD55000842
:10570000BD550008BD550008BD550008BD55000831
:10571000BD550008BD550008DF5800083B5700087C
:10572000BD580008355700086D5700088D57000810
:105730003B570008314B1B7813B90024204670BD3D
:10574000AC782F4B64B301221A70F6E7AB78002BCC
:10575000F3D02C4A537813F0F00F0CBF0121002135
:1057600061F307135370FFF715FAE6E7AB78002BE8
:10577000E3D0254A137883F001031370DDE7AC789A
:1057800001230CB13370D9E7347017E7AB78002BE5
:10579000D3D01E4B1C7814B901221A70CEE7002416
:1057A0001C70CBE7194BAC781B7824B1002B3FF46D
:1057B00005AF52200CE0002B3FF400AF52202BE04D
:1057C000124BAC781B781CB3002B3FF4F7AE502083
:1057D000FDF776FAB1E700BFE7130020C7130020FA
:1057E000E6130020C0130020C4130020A12F0020C6
:1057F000AE2F002000080040AD2F0020982F002081
:10580000A42F0020A82F0020D2130020C2130020B4
:10581000002B3FF4D3AE5020FDF7B2FA8EE7974B42
:10582000AC781B7824B1002B3FF4C8AE5120CFE7F1
:10583000002B3FF4C3AE5120EEE7904BAC781B78C1
:1058400024B1002B3FF4BAAE4F20C1E7002B3FF448
:10585000B5AE4F20E0E78A4B1B6999063FF5AEAE27
:10586000E620AC78002CD7D0B2E7854B1E6916F045
:1058700020067FF4A3AEE320AC78F3E7804B1E69EB
:1058800016F020067FF49AAEE720AC78EAE77C4B6E
:105890001E6916F020067FF491AEE220AC78E1E7B5
:1058A000FDF76EFA8AE7AC78E3201CB1FDF708FA41
:1058B00007208DE7FDF764FA0720ADE7AC78002CF0
:1058C0003FF43CAF62200AF077FC36E7AC78002C5E
:1058D0003FF474AE01F034FE06F0FCFF2EE7AC7826
:1058E000002C3FF42BAF674B2DE7AC78002C3FF436
:1058F00025AF05F0B3FC644B644D18700638C0B298
:105900000A289EBF40F28164C440E443EA7898BF0D
:1059100004F0010402F00F030133F4B90621B3FBD4
:10592000F1F001FB103363F30302EA70584A03EB12
:105930004303D118D45C4E7805F0E2FC31460246B0
:10594000204605F0CEFCFFF725F9E878002400F0AA
:105950000F00FFF7B7FD4F4B22E70721B3FBF1F133
:10596000C1EBC1015B1A63F30302EA704A4A32F8E1
:10597000234002EB83039E78DEE7AC78002C3FF4F3
:105980001DAE05F043FDD9E6AB78002B3FF416AE13
:1059900005F03CFD54283FF611AE2A2005F02EFDFF
:1059A000CBE6AB78002B3FF409AE3C4B1A787AB1CA
:1059B00000223B4C1A7005F007FC01224FF40071E5
:1059C000204609F010F84FF40073A36105F00AFDBA
:1059D00005F096FCF2E5AB78002B3FF4EFADF7E76E
:1059E000AC78002C3FF4AAAE002000F0B3F90122FD
:1059F0002C4B2D491A70254A08781378C3F3C0043C
:105A000064F3041043F0040308701370ABE6AC7841
:105A1000002C3FF493AE022000F09CF90122214BB0
:105A20001A70214B1A786FF304121A70174B1A78F8
:105A30006FF382021A7096E6AC78002C3FF4BEAD8C
:105A40000121124B5A7861F303025A70FFF7A2F852
:105A500074E6AC78002C3FF4B1AD0C4B02215A78BF
:105A6000F1E7AC78002C3FF4A9AD084B03215A783C
:105A7000E9E70E4B1C7884F001045FE6C2130020B6
:105A800000080040E7130020D5130020A82F0020B5
:105A9000F00F0020E8130020640C0108D41300204C
:105AA00000040040D3130020AE2F0020A02F0020C0
:105AB000AB781E4D4BB31E4A137813B100211D4B1A
:105AC0001970002313702A781B4963F307120B70B7
:105AD0002A70FFF75BFCFFF703FD184B1A78EB7891
